{
  "_format": "hh-sol-artifact-1",
  "contractName": "StealthRegistry",
  "sourceName": "contracts/StealthRegistry.sol",
  "abi": [
    {
      "anonymous": false,
      "inputs": [
        {
          "indexed": true,
          "internalType": "uint256",
          "name": "id",
          "type": "uint256"
        },
        {
          "indexed": true,
          "internalType": "address",
          "name": "sender",
          "type": "address"
        },
        {
          "indexed": false,
          "internalType": "bytes",
          "name": "ciphertext",
          "type": "bytes"
        },
        {
          "indexed": false,
          "internalType": "uint256",
          "name": "timestamp",
          "type": "uint256"
        }
      ],
      "name": "NewRecord",
      "type": "event"
    },
    {
      "inputs": [
        {
          "internalType": "uint256",
          "name": "id",
          "type": "uint256"
        }
      ],
      "name": "getRecord",
      "outputs": [
        {
          "internalType": "address",
          "name": "",
          "type": "address"
        },
        {
          "internalType": "bytes",
          "name": "",
          "type": "bytes"
        },
        {
          "internalType": "uint256",
          "name": "",
          "type": "uint256"
        }
      ],
      "stateMutability": "view",
      "type": "function"
    },
    {
      "inputs": [
        {
          "internalType": "uint256",
          "name": "",
          "type": "uint256"
        }
      ],
      "name": "records",
      "outputs": [
        {
          "internalType": "address",
          "name": "sender",
          "type": "address"
        },
        {
          "internalType": "bytes",
          "name": "ciphertext",
          "type": "bytes"
        },
        {
          "internalType": "uint256",
          "name": "timestamp",
          "type": "uint256"
        }
      ],
      "stateMutability": "view",
      "type": "function"
    },
    {
      "inputs": [
        {
          "internalType": "bytes",
          "name": "ciphertext",
          "type": "bytes"
        }
      ],
      "name": "store",
      "outputs": [],
      "stateMutability": "nonpayable",
      "type": "function"
    },
    {
      "inputs": [],
      "name": "totalRecords",
      "outputs": [
        {
          "internalType": "uint256",
          "name": "",
          "type": "uint256"
        }
      ],
      "stateMutability": "view",
      "type": "function"
    }
  ],
  "bytecode": "0x6080604052348015600f57600080fd5b50610b2e8061001f6000396000f3fe608060405234801561001057600080fd5b506004361061004c5760003560e01c806303e9e60914610051578063125f89741461008357806334461067146100a1578063b374012b146100d3575b600080fd5b61006b600480360381019061006691906104d3565b6100ef565b60405161007a939291906105e0565b60405180910390f35b61008b610234565b604051610098919061061e565b60405180910390f35b6100bb60048036038101906100b691906104d3565b610240565b6040516100ca939291906105e0565b60405180910390f35b6100ed60048036038101906100e8919061069e565b610322565b005b600060606000806000858154811061010a576101096106eb565b5b90600052602060002090600302016040518060600160405290816000820160009054906101000a900473ffffffffffffffffffffffffffffffffffffffff1673ffffffffffffffffffffffffffffffffffffffff1673ffffffffffffffffffffffffffffffffffffffff16815260200160018201805461018990610749565b80601f01602080910402602001604051908101604052809291908181526020018280546101b590610749565b80156102025780601f106101d757610100808354040283529160200191610202565b820191906000526020600020905b8154815290600101906020018083116101e557829003601f168201915b505050505081526020016002820154815250509050806000015181602001518260400151935093509350509193909250565b60008080549050905090565b6000818154811061025057600080fd5b90600052602060002090600302016000915090508060000160009054906101000a900473ffffffffffffffffffffffffffffffffffffffff169080600101805461029990610749565b80601f01602080910402602001604051908101604052809291908181526020018280546102c590610749565b80156103125780601f106102e757610100808354040283529160200191610312565b820191906000526020600020905b8154815290600101906020018083116102f557829003601f168201915b5050505050908060020154905083565b600060405180606001604052803373ffffffffffffffffffffffffffffffffffffffff16815260200184848080601f016020809104026020016040519081016040528093929190818152602001838380828437600081840152601f19601f82011690508083019250505050505050815260200142815250908060018154018082558091505060019003906000526020600020906003020160009091909190915060008201518160000160006101000a81548173ffffffffffffffffffffffffffffffffffffffff021916908373ffffffffffffffffffffffffffffffffffffffff160217905550602082015181600101908161041e9190610955565b506040820151816002015550503373ffffffffffffffffffffffffffffffffffffffff1660016000805490506104549190610a56565b7fb00eb8bd09ddf15f5716b508d3d67e565f322710c7bf27c686d61c211591b1be84844260405161048793929190610ac6565b60405180910390a35050565b600080fd5b600080fd5b6000819050919050565b6104b08161049d565b81146104bb57600080fd5b50565b6000813590506104cd816104a7565b92915050565b6000602082840312156104e9576104e8610493565b5b60006104f7848285016104be565b91505092915050565b600073ffffffffffffffffffffffffffffffffffffffff82169050919050565b600061052b82610500565b9050919050565b61053b81610520565b82525050565b600081519050919050565b600082825260208201905092915050565b60005b8381101561057b578082015181840152602081019050610560565b60008484015250505050565b6000601f19601f8301169050919050565b60006105a382610541565b6105ad818561054c565b93506105bd81856020860161055d565b6105c681610587565b840191505092915050565b6105da8161049d565b82525050565b60006060820190506105f56000830186610532565b81810360208301526106078185610598565b905061061660408301846105d1565b949350505050565b600060208201905061063360008301846105d1565b92915050565b600080fd5b600080fd5b600080fd5b60008083601f84011261065e5761065d610639565b5b8235905067ffffffffffffffff81111561067b5761067a61063e565b5b60208301915083600182028301111561069757610696610643565b5b9250929050565b600080602083850312156106b5576106b4610493565b5b600083013567ffffffffffffffff8111156106d3576106d2610498565b5b6106df85828601610648565b92509250509250929050565b7f4e487b7100000000000000000000000000000000000000000000000000000000600052603260045260246000fd5b7f4e487b7100000000000000000000000000000000000000000000000000000000600052602260045260246000fd5b6000600282049050600182168061076157607f821691505b6020821081036107745761077361071a565b5b50919050565b7f4e487b7100000000000000000000000000000000000000000000000000000000600052604160045260246000fd5b60008190508160005260206000209050919050565b60006020601f8301049050919050565b600082821b905092915050565b60006008830261080b7fffffffffffffffffffffffffffffffffffffffffffffffffffffffffffffffff826107ce565b61081586836107ce565b95508019841693508086168417925050509392505050565b6000819050919050565b600061085261084d6108488461049d565b61082d565b61049d565b9050919050565b6000819050919050565b61086c83610837565b61088061087882610859565b8484546107db565b825550505050565b600090565b610895610888565b6108a0818484610863565b505050565b5b818110156108c4576108b960008261088d565b6001810190506108a6565b5050565b601f821115610909576108da816107a9565b6108e3846107be565b810160208510156108f2578190505b6109066108fe856107be565b8301826108a5565b50505b505050565b600082821c905092915050565b600061092c6000198460080261090e565b1980831691505092915050565b6000610945838361091b565b9150826002028217905092915050565b61095e82610541565b67ffffffffffffffff8111156109775761097661077a565b5b6109818254610749565b61098c8282856108c8565b600060209050601f8311600181146109bf57600084156109ad578287015190505b6109b78582610939565b865550610a1f565b601f1984166109cd866107a9565b60005b828110156109f5578489015182556001820191506020850194506020810190506109d0565b86831015610a125784890151610a0e601f89168261091b565b8355505b6001600288020188555050505b505050505050565b7f4e487b7100000000000000000000000000000000000000000000000000000000600052601160045260246000fd5b6000610a618261049d565b9150610a6c8361049d565b9250828203905081811115610a8457610a83610a27565b5b92915050565b82818337600083830152505050565b6000610aa5838561054c565b9350610ab2838584610a8a565b610abb83610587565b840190509392505050565b60006040820190508181036000830152610ae1818587610a99565b9050610af060208301846105d1565b94935050505056fea26469706673582212206f2c422b2aee6016faccec399652da223f6aad755b77305037aef2f7bc52268464736f6c634300081c0033",
  "linkReferences": {},
  "deployedLinkReferences": {}
}